:020000040800F2
:10000000081D002089BD0008958B0008978B00080B
:100010009B8B00089F8B0008A38B0008000000004A
:10002000000000000000000000000000A78B000896
:10003000A98B000800000000F7DE00085129000825
:10004000A3BD0008A3BD0008A3BD0008A3BD000810
:10005000A3BD0008A3BD0008FD8E0008178F00088F
:10006000318F00084B8F0008658F0008A3BD000882
:10007000A3BD0008A3BD0008A3BD0008A3BD0008E0
:10008000A3BD0008A3BD0008A3BD0008A3BD0008D0
:100090002B240008DB240008A3BD00086D8F000896
:1000A000A3BD0008A3BD0008A3BD0008A3BD0008B0
:1000B000A3BD0008A3BD0008178E0008A3BD00085B
:1000C000A3BD0008A3BD0008A3BD0008A3BD000890
:1000D000A3BD0008238D0008A3BD0008AB8B00085A
:1000E0001D900008A3BD0008A3BD0008A3BD000823
:1000F000A3BD0008A3BD0008A3BD0008A3BD000860
:10010000A3BD0008A3BD0008A3BD0008A3BD00084F
:10011000A3BD0008A3BD0008A3BD0008A3BD00083F
:10012000A3BD0008A3BD0008A3BD0008A3BD00082F
:1001300000F002F800F0B4F80AA090E8000C824445
:100140008344AAF10107DA4501D100F0A9F8AFF222
:10015000090EBAE80F0013F0010F18BFFB1A43F0A5
:100160000103184754270100742701000A444FF087
:10017000000C10F8013B13F0070408BF10F8014B06
:100180001D1108BF10F8015B641E05D010F8016B4B
:10019000641E01F8016BF9D113F0080F1EBF10F8AF
:1001A000014BAD1C0C1B09D16D1E58BF01F801CBD2
:1001B000FAD505E014F8016B01F8016B6D1EF9D555
:1001C0009142D6D37047000000230024002500266A
:1001D000103A28BF78C1FBD8520728BF30C148BFAA
:1001E0000B6070476E290EF0CE8170290EF02685C7
:1001F000662911F07883652911F07583672911F05C
:100200007283612911F0718303681B0A28BF41F0D2
:10021000800169290DF0208764290DF01D8775295B
:100220000DF01A876F290EF0B18478290EF0F28450
:10023000E9290EF04984E4290EF04684F5290EF0F0
:100240004384EF290EF0AE84F8290EF0F1840368A0
:10025000DB0928BF41F0800163290EF03187732943
:100260000EF03687E3290EF04187F3290EF046871A
:10027000002070471FB59DE803000EF083F80EF0D4
:10028000EDFC04000020002110F088F9401C6060A3
:100290000020002110F06CF9E0601FBD10B510BD0A
:1002A0000EF0CAFF1146FFF7E5FF08F019FC0EF04B
:1002B000F1FF03B4FFF7F2FF03BC0FF05FF800009B
:1002C0002DE9F05F04460D4692469B4652465B463A
:1002D0002046294610F080FD02D22046294601E042
:1002E0005046594606460F460AA80FC810F074FD3E
:1002F00002D2DDE90A0101E0DDE90C018046894610
:1003000042464B463046394610F066FD03D2304631
:100310003946BDE8F09F40464946FAE72DE9FF4FD0
:1003200081B00399019811F069FA81460399019807
:1003300011F064FA4946009011F058F9804610F027
:100340005DFF06460F460499029811F057FA814660
:100350000499029811F052FA4946009011F046F9BA
:10036000804610F04BFF82468B4652465B46304635
:10037000394610F05BF9804610F0D4F804460D467B
:100380002046294605B0BDE8F08F2DE9FF470299C8
:10039000009811F033FA8146002111F0F3F904D2EC
:1003A0000299009811F02AFA05E00299009811F0DC
:1003B00025FA80F00040804610F020FF0646FE4AF5
:1003C000FE4B10F0CFFB02D8FD4CFE4D11E0009922
:1003D000029811F013FA07460199039811F00EFAEA
:1003E0008046394610F0A4FF064610F007FF044689
:1003F0000D462046294604B0BDE8F0872DE9FF47A9
:100400000299009811F0FAF98146002111F0BAF929
:1004100004D20299009811F0F1F905E002990098D0
:1004200011F0ECF980F00040804610F0E7FE06463F
:10043000E14AE24B10F096FB0AD80399019811F0BB
:10044000A1F902D2DE4CE04D3CE0DD4CDD4D39E05F
:100450000099029811F0D2F981460199039811F0A0
:10046000CDF98246494610F063FF064610F0C6FEFD
:1004700007460FF097FE04460D460299009811F0CA
:1004800081F90DD20399019811F07CF808D2CC4A79
:10049000CE4B2046294610F0C9F804460D4611E01F
:1004A0000299009811F06EF90CD20399019811F09D
:1004B00069F907D2C24AC54B2046294610F0B4FD5F
:1004C00004460D462046294604B0BDE8F0872DE9D4
:1004D000FF5F8CB014461D461AAE96E8C003324644
:1004E0003B463046394610F079FB22462B46CDE993
:1004F00006012046294610F071FBCDE90401DDE933
:10050000062310F093F8CDE9080110F00BF8CDE9BF
:100510000A010D9810F072FE32463B46CDE900010B
:1005200010F05CFBCDE904010C9810F067FE224648
:100530002B46CDE9000110F051FBCDE90201DDE9C8
:10054000042310F073F842464B46CDE9060110F043
:100550006DF800221346CDE9080110F03DFC20D2D1
:100560000D9810F04BFE32463B46CDE9020110F0EB
:1005700035FBCDE906010C9810F040FE22462B46D3
:10058000CDE9020110F02AFBCDE90401DDE90623E3
:1005900010F04CF842464B46CDE9080110F046F801
:1005A00021E00D9810F02AFE32463B46CDE90201CB
:1005B00010F014FBCDE906010C9810F01FFE224646
:1005C0002B46CDE9020110F009FBCDE90401DDE97C
:1005D000062310F02BF842464B46CDE9080110F0F7
:1005E00025F881F000418246DDE90A2310F0DAF8AF
:1005F00010B0BDE8F09F2DE9FF4F85B00899139822
:1006000011F0FCF8824610F0F9FD04460D461299EF
:10061000079811F0F3F8824610F0F0FD06460F46F9
:100620001399079810F0E2FF83460899129810F08A
:10063000DDFF5946049011F0E1F8824610F0DEFD2E
:100640008046894622462B468DE8C003DDE9050138
:10065000FFF73DFF09B0BDE8F08F2DE9FF4F89B0EE
:10066000DDE9164526462F4600215948CDE90610FA
:100670000C9810F0C3FD82468B460B9810F0BEFD1F
:1006800085F00043A0464246CDE9000110F0A6FAED
:1006900052465B46CDE902010FF0C8FFCDE90401E7
:1006A000DDE90401CDE90201DDE9060132463B4600
:1006B000CDE90001DDE90901FFF709FF0DB0BDE853
:1006C000F08F2DE9FF4794B0824620AC94E8F00308
:1006D00032463B463046394610F080FA22462B46D9
:1006E000CDE90A012046294610F078FACDE9080143
:1006F000DDE90A230FF09AFF42464B46CDE90E0191
:100700002046294610F06AFACDE90A01169810F041
:1007100075FD32463B46CDE902012046294610F0E0
:100720005DFACDE90001DDE9022310F057FACDE9C9
:100730000601159810F062FD32463B46CDE90201F4
:100740003046394610F04AFACDE90001DDE90223CE
:1007500010F044FACDE90401DDE9062310F064FC51
:10076000CDE90801DDE90A2310F05EFCCDE90C01BA
:10077000DDE90E2310F016F8CDE910010FF024FF8B
:10078000129032463B463046394610F027FA224650
:100790002B46CDE90A012046294610F01FFACDE983
:1007A0000801DDE90A230FF041FF42464B46CDE93F
:1007B0000E01304639460DE07B14AE47E17A943F96
:1007C000EA2E4454FB21F93FFB21F9BFFB210940EC
:1007D0000000F0BF10F002FACDE90A01159810F000
:1007E0000DFD32463B46CDE902012046294610F078
:1007F000F5F9CDE90001DDE9022310F0EFF9CDE9CB
:100800000601169810F0FAFC22462B46CDE90201AB
:100810002046294610F0E2F9CDE90001DDE9022386
:1008200010F0DCF9CDE90401DDE9062310F0FCFB52
:10083000CDE90801DDE90A2310F0F6FBCDE90C0152
:10084000DDE90E230FF0AEFFCDE910010FF0BCFE85
:100850001390DDE91201CAE9000118B0BDE8F08784
:100860000FB42DE9F04F89B082461699189810F010
:10087000C5FF834610F0C2FC04460D461799159833
:1008800010F0BCFF834610F0B9FC06460F461899DD
:10089000159810F0ABFE0690DDE9161010F0A6FEDC
:1008A0000590069910F0AAFF834610F0A7FC804639
:1008B00089468DE8F00307A8DDE91312FFF701FF71
:1008C000DDE90701CAE9000109B0BDE8F00F5DF8F4
:1008D00014FB0FB42DE9F0478CB08246DDE91A45D0
:1008E00026462F4600211C48CDE90810189810F024
:1008F00085FCCDE90401179810F080FC804685F056
:10090000004042460B46CDE900402046019910F0D8
:1009100065F9CDE90201DDE904230FF087FECDE999
:100920000601DDE90601CDE90401DDE908013446EF
:100930003D46CDE90067CDE902010AA8DDE91512BF
:10094000FFF7BFFEDDE90A01CAE900010CB0BDE80E
:10095000F0075DF814FB00000000F0BF07B5AAB077
:100960003022FE4916A80DF0BCFCFD480F90FD4852
:100970000E90FD480168FD48006810F06BFC0146D0
:100980000D904FF07E5010F0D3FCF9490860F94902
:100990000860F5480168F548006810F05BFC0D90B0
:1009A000F5480168F548006810F054FC4FF08041AC
:1009B0000B9010F0BDFC0C900D9910F0B9FCF049B3
:1009C00008601898079010F0B1FD08900F9910F08A
:1009D0000DFE0990EA480168099810F007FE0A9098
:1009E0002C9910F003FE0C901798069010F09EFDC5
:1009F0000790DF480168079810F0F8FD08902B99E0
:100A000010F0F4FD0A901698069010F08FFD0790F4
:100A1000D8480168079810F0E9FD08902A9910F06D
:100A2000E5FD09900A9910F015FC0B900C9910F057
:100A300011FC0D900E9910F0D9FD28901B9807908D
:100A400010F074FD08900F9910F0D0FD0990CC487B
:100A50000168099810F0CAFD0A902C9910F0C6FDA3
:100A60000C901A98069010F061FD0790C04801683C
:100A7000079810F0BBFD08902B9910F0B7FD0A9075
:100A80001998069010F052FD0790BA48016807982F
:100A900010F0ACFD08902A9910F0A8FD09900A9971
:100AA00010F0D8FB0B900C9910F0D4FB0D900E9920
:100AB00010F09CFD29901E98079010F037FD0890CB
:100AC0000F9910F093FD0990AD480168099810F056
:100AD0008DFD0A902C9910F089FD0C901D980690C0
:100AE00010F024FD0790A2480168079810F07EFDE1
:100AF00008902B9910F07AFD0A901C98069010F03F
:100B000015FD07909B480168079810F06FFD08904D
:100B10002A9910F06BFD09900A9910F09BFB0B903D
:100B20000C9910F097FB0D900E9910F05FFD279037
:100B300016A8C06A079010F0F9FC08900F9910F001
:100B400055FD09908E480168099810F04FFD0A90F4
:100B50002C9910F04BFD0C9016A8806A069010F0AE
:100B6000E5FC079082480168079810F03FFD089067
:100B70002B9910F03BFD0A901F98069010F0D6FCC0
:100B800007907C480168079810F030FD08902A997A
:100B900010F02CFD09900A9910F05CFB0B900C9959
:100BA00010F058FB0D900E9910F020FD269075481E
:100BB0000168299810F022FE259073480168289852
:100BC00010F01CFE249071480168279810F016FE62
:100BD00023906F480168269810F010FE22900021A3
:100BE000229810F0CFFD01D2229802E0229880F0E6
:100BF0000040039010F002FBCDE90A010021239888
:100C000010F0C0FD01D2239802E0239880F000404C
:100C1000039010F0F3FACDE908010021249810F0B8
:100C2000B1FD01D2249802E0249880F000400390A6
:100C300010F0E4FACDE906010021259810F0A2FD9C
:100C400001D2259802E0259880F00040039010F032
:100C5000D5FACDE90401DDE90A01CDE90201DDE9BA
:100C60000801CDE9000104A80FC8FFF729FBCDE971
:100C70000C010FF0A9FC159046480168159810F07A
:100C800081FD00D800BF4348006880F000400D900F
:100C9000159910F077FD00D800BF3A4929980860EF
:100CA00039492898086039492798086038492698B2
:100CB0000860394840680C9010F038FC0D903148BD
:100CC00001680D9810F092FC2990344840680C900F
:100CD00010F02CFC0D902C4801680D9810F086FC4B
:100CE00028902F4840680C9010F020FC0D90274869
:100CF00001680D9810F07AFC27902A4840680C9003
:100D000010F014FC0D90224801680D9810F06EFC54
:100D10002690299810F072FA234A244BCDE9080155
:100D20000FF05CFF0022224BCDE90A010FF07EFCA0
:100D3000CDE90C010FF048FC1390289810F05EFAF2
:100D4000194A1A4BCDE908010FF048FF0022184B51
:100D5000CDE90A010FF06AFC2CE00000E01901085F
:100D60000AD7233CEBC91841300000202C0000209A
:100D70005C000020580000202800002024000020F3
:100D8000600000203C0000204000002044000020C3
:100D90004800002000000020040000200C0000207B
:100DA000140000201C000020DEDDDDDDDDDDBD3FA8
:100DB00000004940CDE90C010FF006FC1290279885
:100DC00010F01CFA7E4A7F4BCDE908010FF006FFB8
:100DD00000227D4BCDE90A010FF028FCCDE90C0182
:100DE0000FF0F2FB1190269810F008FA744A754B38
:100DF000CDE908010FF0F2FE0022734BCDE90A01A4
:100E00000FF014FCCDE90C010FF0DEFB10906F49E0
:100E1000109810F0F3FC0021029010F0B3FC04D203
:100E20006A49109810F0EAFC05E06849109810F043
:100E3000E5FC80F00040039010F0E0F9CDE90A01F4
:100E40006249119810F0DAFC0021029010F09AFC2F
:100E500004D25E49119810F0D1FC05E05B4911986D
:100E600010F0CCFC80F00040039010F0C7F9CDE901
:100E700008015649129810F0C1FC0021029010F0B0
:100E800081FC04D25149129810F0B8FC05E04F499A
:100E9000129810F0B3FC80F00040039010F0AEF90F
:100EA000CDE906014949139810F0A8FC00210290F1
:100EB00010F068FC04D24549139810F09FFC05E03F
:100EC0004249139810F09AFC80F00040039010F013
:100ED00095F9CDE90401DDE90A01CDE90201DDE979
:100EE0000801CDE9000104A80FC8FFF7E9F9CDE931
:100EF0000C010FF069FB14903549149810F042FC76
:100F000043D83249139810F079FC31490B9010F016
:100F10006DFB0C90149910F00BFA2C490D9010F009
:100F200099F913902949129810F068FC28490B9000
:100F300010F05CFB0C90149910F0FAF923490D9015
:100F400010F088F912902149119810F057FC2049AF
:100F50000B9010F04BFB0C90149910F0E9F91B4921
:100F60000D9010F077F911901849109810F046FC88
:100F700017490B9010F03AFB0C90149910F0D8F927
:100F800012490D9010F066F91090124800780D90FB
:100F9000139906F022FD104800780D90129906F082
:100FA0001CFD0E4800780D90119906F016FD0C48B6
:100FB00000780D90109906F010FD2DB000BD0000D6
:100FC000DEDDDDDDDDDDBD3F0000494000004842E3
:100FD00000004042040000200C000020140000200B
:100FE0001C000020002011E0002100EB4002A04B7B
:100FF00003EBC202D16000EB400203EBC2021161BD
:1010000000EB400203EBC2025161401C9949097890
:101010008842E9DB0021984A1160984A1160984A99
:101020001160984A1160984A1160984A1160002036
:1010300006E00022964B03EBC0031A605A60401C86
:101040000528F6DB70470FB42DE9F84F044600255C
:1010500000260027A8464FF07E500C9910F068F942
:1010600083464FF07E5110F0F5F882460D9910F04E
:10107000F1F881460B9910F0B9FA05464FF080401F
:101080000D9910F0B3FA83464FF07E5110F0E2F85C
:1010900081460B9880F0004A4946504610F0A6FA67
:1010A00006460D990B9810F0A1FA0746384610999C
:1010B00010F09CFA009030460F9910F097FA824693
:1010C0002946204610F092FA8346514610F0C2F8A5
:1010D0008146009910F0BEF8804641460E9810F007
:1010E000B9F80E900F9810900F940E98BDE8F80F75
:1010F0005DF814FB0FB42DE9F84F044600250026D7
:101100000027A8464FF07E500C9910F011F9834645
:101110004FF07E5110F09EF882460D9910F09AF82B
:1011200081460B9910F062FA05464FF080400D9908
:1011300010F05CFA83464FF07E5110F08BF8814638
:101140000B9880F0004A4946504610F04FFA064688
:101150000D990B9810F04AFA07464848016838463E
:1011600010F044FA009044480168304610F03EFA0E
:1011700082462946204610F039FA8346514610F03F
:1011800069F88146009910F065F8804641463C4870
:10119000006810F05FF83A4908603748006837493E
:1011A00008603548046036480068BDE8F80F5DF80F
:1011B00014FB0FB42DE9F84F044600250026002744
:1011C000A8464FF07E500C9910F0B2F883464FF0CD
:1011D0007E5110F03FF882460D9910F03BF88146A1
:1011E0000B9910F003FA05464FF080400D9910F06E
:1011F000FDF983464FF07E5110F02CF881460B9894
:1012000080F0004A4946504610F0F0F906460D9924
:101210000B9810F0EBF907461B480168384610F0B0
:10122000E5F9009017480168304610F0DFF9824672
:101230002946204610F0DAF98346514610F00AF8A4
:101240008146009910F006F8804641460F48006834
:1012500010F000F80D4908600A4800680A49086063
:101260000848046009480068BDE8F80F5DF814FB01
:10127000640000200C010020F4000020F800002091
:10128000FC000020000100200401002008010020D3
:10129000580900201FB5F948DDE9001412C0F848CC
:1012A0000260F84803601FBD2DE9F04F91B00025A2
:1012B000A946AA46F1480CC8F34803C8FFF79EF8B0
:1012C000CDE90A010FF080F90F90EF488168EC48F2
:1012D000006810F093FA0D90E8480CC8EA4803C87B
:1012E000FFF71CF8CDE90A010FF06EF90C900DE044
:1012F0000D980FF083FFE54AE54BCDE908010FF0AB
:1013000093FECDE90A010FF05FF90D900D980FF0F3
:1013100075FFDE4ADF4BCDE90A010FF05DFDE7D333
:101320000DE00D980FF06AFFD84AD94BCDE90801BE
:101330000FF07CF9CDE90A010FF046F90D900D98F8
:101340000FF05CFFD14AD44BCDE90A010FF00AFC43
:10135000E7D3D248D0E91B12406FCDE900120290CA
:10136000CE4860300EC80D98FFF7C4FE8346CC49C6
:1013700010F03CF98146C9487830D0E90312406941
:10138000CDE900120290C54878300EC80C98FFF7DE
:1013900010FF8246C3480168484610F0F3F903D2B3
:1013A000C048D0F800900CE0BE48006880F0004BC8
:1013B0004946584610F0E6F903D2BA48006880F072
:1013C000004955460021084600F0C5FCB6A000F0D3
:1013D000E5FC484600F030FD1421002000F0BBFC85
:1013E000B3A000F0DBFC504600F026FD28210020D1
:1013F00000F0B1FCB0A000F0D1FCA349886800F077
:101400001BFD3C21002000F0A6FCAEA000F0C6FCB5
:101410000D9800F011FD9B480168284610F0B2F9C4
:1014200002D2984805680CE09648006880F0004BAE
:101430002946584610F0A6F903D29248006880F079
:1014400000450F980FF0DAFECDE904010EF0BCFF65
:10145000CDE9080128460FF0D1FECDE90601DDE90E
:1014600008230FF0BBFBCDE90A010FF0ADF80446ED
:101470000F980FF0C3FECDE904010EF0FBFFCDE99C
:10148000080128460FF0BAFECDE90601DDE9082380
:101490000FF0A4FBCDE90A010FF096F806467A4852
:1014A000D0F8088040460FF0A9FECDE900010EF00B
:1014B000E1FFCDE9040130460FF0A0FECDE90201C5
:1014C000DDE904230FF08AFBCDE9080140460FF067
:1014D00095FECDE900010EF077FFCDE9040120462D
:1014E0000FF08CFECDE90201DDE904230FF076FB5D
:1014F000CDE90601DDE908230FF098F8CDE90A01EE
:101500000FF062F80E9040460FF078FECDE9000132
:101510000EF05AFFCDE9040130460FF06FFECDE921
:101520000201DDE904230FF059FBCDE90801404633
:101530000FF064FECDE900010EF09CFF84F0004B3B
:10154000CDE9040158460FF059FECDE90201DDE96D
:1015500004230FF043FBCDE90601DDE908230FF07A
:1015600065F8CDE90A010FF02FF8074611B0BDE884
:10157000F08F2DE9F05F4FF6FF7000F0D1F8FFF724
:1015800031FD544903C90FF01FF881463F4A414BD2
:10159000514903C90FF022FB074600224F4B0FF0C1
:1015A00001F905460FF010F804464B4622464C4818
:1015B00003C8FFF76FFEAEE0FFF776FE8221002042
:1015C00000F0C9FB47A000F0E9FB45480CC82E48D5
:1015D00003C8FEF7A3FE05460EF0F6FF044600F032
:1015E0002BFC3F480CC8284803C8FEF797FE04466A
:1015F0000022404B0FF0B6FA3FD2244A254B364921
:1016000003C90FF0EBFA82460022344B0FF0CAF800
:1016100006460F461C4988680FF0F0FD80463246AA
:101620003B460FF001FD0446334A344B0FF09AFA63
:101630006ED2164A174B284903C90FF0CFFA8046DD
:101640000022264B0FF0AEF804460D460E4988687E
:101650000FF0D4FD064622462B460FF0E5FC8246ED
:10166000254A274B0FF0B8FB52D2002025490860CD
:1016700025490860254908604EE049E03001002016
:10168000380100203C01002080090020EA2E44544B
:10169000FB211940FB210940FB2109C06400002007
:1016A00000007A4410010020566F75745F413A00C3
:1016B000566F75745F443A004750532E72616469E7
:1016C000616E3A006572726F725F616E676C653A47
:1016D000000000002801002020010020008066405A
:1016E000140100206E6F775F64697374616E6365C7
:1016F0003A000000000049407B14AE47E17A943F75
:10170000E17A94BF54000020500000204C000020DB
:101710000F2001F07AF94FE700BFBDE8F09F00000D
:1017200070B504460026F748058840884543F548CB
:101730008088A0F5D041043916D1F248807901287B
:1017400012D10020EF4988712A2048812B208881FE
:101750000021084601F05EFA0120EA4988712B2039
:1017600048812A20888103E00021084601F052FACE
:1017700001F033FA002602E0E3480480761CAE4212
:10178000FAD370BD2DE9FC5F05460E461746984614
:10179000DDF8309000200190DA488088A0F5D04133
:1017A000043929D1D7488079012825D1AB4635465F
:1017B000D4480088C01B401E86B24746D1480088E6
:1017C000A0EB0B00401E1FFA80F80020CD49887165
:1017D0002A2048812B20888143463A4631462846B4
:1017E000CDF80090FFF7CEFF0120C64988712B206D
:1017F00048812A2088811CE0781B401C80B201901F
:10180000344614E02146284601F004FA01F0E5F9D7
:101810004FF0000A06E0484601F0C7F90AF101005E
:101820001FFA80FA01988245F5DB601C84B24445BA
:10183000E8DDBDE8FC9F2DE9F84F07460D469046D0
:101840009946DDF828B0A8EB0700401C80B2009054
:10185000A9EB0500401C1FFA80FA002415E02819A6
:1018600081B2384601F0D6F901F0B7F9002607E059
:1018700004FB0A603BF81000A3490880701C86B284
:1018800000988642F4DB601C84B25445E7DBBDE877
:10189000F88F2DE9FF4F85B081468A4600200490DD
:1018A00003900798A0EB09050898A0EB0A06CDF86D
:1018B0000890CDF804A0002D01DD012705E00DB949
:1018C000002702E04FF0FF376D42002E02DD4FF09F
:1018D000010806E016B94FF0000802E04FF0FF38AB
:1018E0007642B54201DD2C4600E034464FF0000B55
:1018F00021E0019A91B2029A90B201F078FC04982A
:10190000284404900398304403900498A04205DDD5
:101910000498001B04900298384402900398A04257
:1019200005DD0398001B03900198404401900BF1E2
:1019300001001FFA80FB601C8345DADD09B0BDE8B9
:10194000F08F2DE9F04104460D4616461F462B4602
:10195000324629462046FFF79CFF3B462246294651
:101960002046FFF796FF3B46324639462046FFF7B2
:1019700090FF3B46324629463046FFF78AFFBDE8D6
:10198000F0812DE9F04706460F4690460024454673
:101990000320A0EB48093CE07A1B91B2321990B2C7
:1019A00001F025FC3A1B91B2721990B201F01FFCB4
:1019B0003A1991B2721990B201F019FC7A1991B2E8
:1019C000321990B201F013FC7A1991B2321B90B225
:1019D00001F00DFC3A1991B2721B90B201F007FCB4
:1019E0007A1B91B2321B90B201F001FC3A1B91B20A
:1019F000721B90B201F0FBFB641CB9F1000F03DA1B
:101A0000A000801D814404E0601B80000A308144F6
:101A10006D1EAC42C0DDBDE8F0872DE9F84F0546EC
:101A20000F4690461E4600973848B0F80090A8F13F
:101A3000200000F0FF080A9800284ED1002449E059
:101A40000C2E07D108EB4800314901EB800010F85B
:101A500004A004E02F4800EB081010F804A04FF099
:101A6000000B31E01AF0800F03D02848A0F8009056
:101A700003E029480088254908803946284601F0B6
:101A8000B6FB4FEA4A604FEA106A781C87B21D48DD
:101A90000088A84204DC1D48A0F80090BDE8F88F3B
:101AA0000098381AB0420BD1009F681C85B21548C7
:101AB0000088A84203DC1548A0F80090EEE706E095
:101AC0000BF1010000F0FF0BBBF1080FCADB00BFF8
:101AD000601CC4B2B442B3DB51E000244DE00C2ED4
:101AE00007D108EB48000A4901EB800010F804A078
:101AF00004E0084800EB081010F804A04FF0000BB9
:101B000035E000000A0A00200008006CCC0200202A
:101B1000141A0108881E0108CE0200201AF0800F56
:101B200003D03946284601F062FB4FEA4A604FEA8B
:101B3000106A781C87B2FE484088A84203DCFD4842
:101B4000A0F80090AAE70098381AB0420BD1009F85
:101B5000681C85B2F6480088A84203DCF548A0F866
:101B600000909BE706E00BF1010000F0FF0BBBF1DA
:101B7000080FD3DB00BF601CC4B2B442AFDBED483A
:101B8000A0F8009000BF89E710B50246012000E0F0
:101B900050430B00A1F10104E1B2F9D110BD2DE9D0
:101BA000FF4F81B0074691461E460E9D4FF0000A3A
:101BB000002439E0301B401EC1B20A20FFF7E4FFC9
:101BC000B9FBF0F00A21B0FBF1F201FB1208BAF107
:101BD000000F16D1701EA04213DDB8F1000F0ED118
:101BE0000020AB4605EBDB71491001FB047100904E
:101BF00088B22B4620220299FFF70FFF12E04FF028
:101C0000010A0020AB4605EBDB71491001FB0471B2
:101C1000009088B208F13001CAB22B460299FFF752
:101C2000FCFE00BF601CC4B2B442C3DB05B0BDE81B
:101C3000F08F2DE9FF4F83B0064692461F46DDE93F
:101C400010480020029000254DE0781B401EC1B2D4
:101C50000A20FFF799FFBAFBF0F00A21B0FBF1F27E
:101C600001FB1209029850BB781EA84227DDB9F18A
:101C7000000F22D118F0800F0FD008F00100A3460A
:101C800004EBDB71491001FB0561009088B223462B
:101C900030220499FFF7C1FE0EE008F00100A346D0
:101CA00004EBDB71491001FB0561009088B223460B
:101CB00020220499FFF7B1FE13E00120029008F002
:101CC0000100A34604EBDB71491001FB05610090A4
:101CD00088B209F13001CAB223460499FFF79DFE8C
:101CE00000BF681CC5B2BD42AFDB07B0BDE8F08FD6
:101CF0002DE9F84F04460D4690469946DDE90A67FE
:101D000004F0FF0A08EB04001FFA80F809EB050055
:101D10001FFA80F916E0444502DB5446A81985B243
:101D20004D4500DB14E0002000903A783346294608
:101D30002046FFF772FE304606EBD07104EB6101DE
:101D40008CB27F1C38787E2802DC38782028E2DAD2
:101D500000BFBDE8F88F784A1070784A11700022F1
:101D6000774B1A707047F8B50546102400202646B8
:101D700004EBD6714910724A009012786E4B1B78B2
:101D800001FB023023462A466C490978FFF745FEDD
:101D90006B480078401C6A490870F8BD10B50446CD
:101DA00003E02078FFF7DFFF641C20780028F8D1DB
:101DB00010BD0FB400B5A1B023A820906846209AAA
:101DC00022990CF021F9002020906846FFF7E6FFE9
:101DD00021B05DF814FB30B502460025594932B9EF
:101DE000302001F8010B00200870564830BD002A51
:101DF00003DA2D2001F8010B5242534B0DE092FB08
:101E0000F3F404B935B104F1300001F8010B04FB1F
:101E1000132201250A2093FBF0F3002BEFDC0020B6
:101E200008704848E2E770B504462046FFF7D3FF44
:101E30000546FFF7B3FF70BD2DE9FC4105460026BE
:101E4000002128460FF09EFB04D22D20FFF78BFFC8
:101E500085F0004528460FF02DFB0746FFF7E3FF0E
:101E600028460FF027FB80460FF060FB0746294607
:101E70000FF0B9FC054600241CE0344928460FF059
:101E8000B5FB054628460FF015FB3030C0B20DF803
:101E900004001DF80400302800D0661C28460FF00E
:101EA00009FB80460FF042FB074629460FF09BFCDA
:101EB0000546641C032CE0DB16B12E20FFF753FF10
:101EC000002404E01DF80400FFF74DFF641CB44239
:101ED000F8DB344603E02020FFF745FF641C062CA6
:101EE000F9DBBDE8FC812DE9F04705460E46154CAF
:101EF000002128460FF046FB07D2154928460FF06F
:101F000041FC02D22D2004F8010B28460FF0D2FA32
:101F10008046FFF760FF0746394620460CF09EF9E1
:101F200038460CF0BFF90444002E47DD2E2011E0A6
:101F30000A0A0020CC0200204001002041010020BC
:101F4000420100208C09002000CA9A3B0000204179
:101F5000000080BF04F8010B002128460FF012FB9F
:101F600001D285F0004528460FF0A4FA82460FF012
:101F7000DDFA814629460FF036FC05464FF0000891
:101F800017E0104928460FF031FB054628460FF0B0
:101F900091FA303004F8010B28460FF08BFA824694
:101FA0000FF0C4FA814629460FF01DFC054608F1E2
:101FB0000108B045E5DB0020207000BF0248BDE805
:101FC000F0870000000020418C090020F8B506468B
:101FD0000C46454800680090701E5DF82070002592
:101FE00015E0002514F8011B384609F005FE00E055
:101FF0006D1C8021384609F06DFE18B94FF6FF7050
:102000008542F5D340F6FF70854200D300BF2078AB
:102010000028E6D1F8BD70B50446D4E912532A462B
:1020200032A120460CF002F821460120FFF7CEFF36
:102030000020207070BD2DE9F04788B082462E49FF
:1020400088680FF0DBF804460D462B4948680FF00E
:10205000D5F806460F46284908680FF0CFF88046A5
:102060008946DAE91201CDE90089CDE90267CDE9B7
:102070000445CDE906019AF8402020A150460BF016
:10208000D5FF51460320FFF7A1FF00208AF800008A
:1020900008B0BDE8F08770B504461F4A1F4BD4E96D
:1020A000125128460EF0C2FAC4E912012046616DB1
:1020B000884770BD10B560200BF050FF044600212A
:1020C000A164E1640020207015482065AFF29900FA
:1020D0006065AFF2BD00A065204610BD10B5044696
:1020E00020460BF06AFF10BD101A010828252E317A
:1020F000662C32290A000000800900202825642C63
:10210000252E32662C252E36662C252E34662C255F
:102110002E34662C31290A009A9999999999B93FD8
:102120009720000810B504F01FFE10BD70B50446DE
:10213000002604F038FE2546E11704EB1161091270
:10214000A02202EB4101C8B204F0E7FE04F072FEE7
:10215000E11704EB11610912A4EB0121C8B204F0EC
:10216000DCFE04F067FE04F01EFEA12004F0D5FEA4
:1021700004F060FE002004F000FF064604F037FE85
:10218000304670BD70B504460E4604F00CFE254680
:10219000E11704EB11610912A02202EB4101C8B260
:1021A00004F0BBFE04F046FEE11704EB11610912D6
:1021B000A4EB0121C8B204F0B0FE04F03BFE3046AF
:1021C00004F0ABFE04F036FE04F011FE0A2000F02D
:1021D0001CFC70BD2DE9F04105460E461746002453
:1021E00009E0E20026FA02F2D1B22A1990B2FFF712
:1021F000C9FF601CC4B2BC42F3DBBDE8F0812DE92D
:10220000F04107460C460026002509E03602391940
:10221000491B491E88B2FFF789FF0644681CC5B2F6
:10222000A542F3DB3046BDE8F08110B5FF20FFF793
:102230007DFF0446552C01D1002010BD5521FF2003
:10224000FFF7A0FFFF20FFF771FF0446552C01D1D7
:102250000020F2E70120F0E770B506460C4615466F
:1022600008E03046721C96B2FFF760FF04F8010BDD
:10227000681E85B2002DF4D170BD70B505460C46C0
:10228000164606E021782846FFF77CFF681C85B2D9
:10229000641C3000A6F101018EB2F3D170BD0000C4
:1022A00008B501208DF8030014208DF800000020EF
:1022B0008DF801008DF80200684606F0DCFF15205D
:1022C0008DF8000000208DF8010001208DF802003B
:1022D000684606F0D0FF08BD08B50121084608F0A1
:1022E000D9FB0121082008F0D5FB0121480608F0A0
:1022F000DEFB01214FF4EA1008F0E5F94FF480709D
:10230000ADF8000048208DF803006946A44808F0A5
:102310000BF94FF40070ADF8000018208DF80300A1
:1023200003208DF8020069469D4808F0FDF808BDBD
:102330000EB50121480608F0BAFB9A4807F004F8E8
:10234000684607F025F900208DF806008DF8070093
:102350008DF808008DF809008DF80A0001208DF82D
:102360000B0000208DF802008DF8030001208DF88D
:10237000040002208DF805000C20ADF8000069462D
:10238000884806F0FAFF0EBD7FB500240026012024
:102390008DF80B0000208DF80C0001208DF80D0049
:1023A00000BF23E004EB84007F4911F82000D8B976
:1023B0008DF80A60701CC6B204EB840001EB80004B
:1023C00040784501ADF80050ADF80250ADF804502A
:1023D000ADF8065004EB840001EB8000407CADF8C2
:1023E0000800684607F053F8601CC4B26F480078D4
:1023F0008442D7DB7FBD10B501220221694807F076
:1024000045FB01221021674807F040FB10BD10B5C5
:1024100000F0D0F8FFF744FFFFF75EFFFFF788FFFB
:10242000FFF7B2FFFFF7E7FF10BD10B586B001AAB6
:1024300000215C4807F00FFA5D490198085CFF280D
:1024400049D00198085C00EB8000574901EB8000FF
:10245000007A9DF80E1088423DD155490198085CDC
:1024600000EB8000504911F82000012833D1504979
:102470000198085C00EB80004B4901EB8000007C78
:10248000012828D14A490198085C00EB80004649A0
:1024900001EB8000407CF0B900240EE00DF10F004C
:1024A000005D434A0199515C01EB81013E4A02EB18
:1024B000810149680855601CC4B29DF80E00A04215
:1024C000ECDC3B4A0199515C01EB8101364A02EB9D
:1024D0008101C868804706B010BD10B586B001AA5A
:1024E0000121304807F0B7F931490198085CFF280D
:1024F00049D00198085C00EB80002B4901EB80007B
:10250000007A9DF80E1088423DD129490198085C57
:1025100000EB8000244911F82000A0BB2449019859
:10252000085C00EB8000204901EB8000007C012862
:1025300029D11F490198085C00EB80001A4901EB82
:102540008000407C01281ED100240EE00DF10F0018
:10255000005D174A0199515C01EB8101124A02EBBF
:10256000810149680855601CC4B29DF80E00A04264
:10257000ECDC0F4A0199515C01EB81010A4A02EB44
:102580008101C868804706B010BD10B5044600BF81
:102590002146044807F06AF80428F9D010BD00006D
:1025A000000C014000640040500100204801002060
:1025B000780100200221324A1170002003E0FF213F
:1025C000304A1154401CFF28F9DD002008E000EBE0
:1025D00080022D4B03EB820252782A4B9854401C08
:1025E000274909788842F2DB704730B585B0044648
:1025F0002448005D2249097888420ADB2148005DB1
:1026000000EB8000204911F82000012801D005B01E
:1026100030BD1C48005D00EB80001B4901EB8000D1
:1026200040780090002001908DF808008DF8090096
:102630001448005D00EB800001EB8000007A8DF80B
:102640000A0000250DE00F48005D00EB80000E49F8
:1026500001EB80004068415D0DF10B004155681CA5
:10266000C5B20848005D00EB8000074901EB80001F
:10267000007AA842E7DC6846FFF787FF00BFC6E79D
:10268000480100207801002050010020704738B533
:1026900005460C4600959DF80000074908709DF816
:1026A0000100487008468470E320FFF79EFF38BDA4
:1026B00070477047704700007E02002010B50A2066
:1026C00000F078F910BD08B50121882008F0E2F982
:1026D0000220ADF8000010208DF8030003208DF8D3
:1026E000020069468B4807F01FFF0221894807F066
:1026F000C6FF4FF40070ADF800006946864807F049
:1027000013FF4FF40071844807F0B9FF08BD10B5FE
:102710008148001D006820F0F0007F49091D086015
:102720000846006840F03000086001207B490860DE
:102730007B49C1F88401FFF7C1FF00207749086099
:10274000FFF7BCFF00207649C1F8840110BD10B529
:102750007148001D006820F0F0006F49091D0860F5
:102760000846006840F03000086001206D490860AC
:10277000FFF7A4FF00206C49C1F8A401FFF79EFFFA
:10278000012066490860FFF799FF10BD10B50024CD
:102790006148001D006820F0F0005F49091D0860D5
:1027A0000846006840F08000086001205B4908602E
:1027B00000F000F901205A49C1F8840100F0FAF84C
:1027C00007E0601CC4B2FA2C03DDFFF7C0FF012054
:1027D00010BD564800680028F3D15249086000BF78
:1027E000F6E710B500204F4908605148006820F016
:1027F000F0004F4908600846006840F0300008606B
:102800004FF000004849C1F8A401FFF757FF01202D
:1028100044490860FFF752FF00204149C1F8840194
:1028200010BD10B500203F4908604148006820F005
:10283000F0003F4908600846006840F0300008603A
:102840004FF001003849C1F8A401FFF737FF01201C
:1028500034490860FFF732FF00203149C1F8840194
:1028600010BD70B504463248006820F0F0003049D1
:1028700008600846006840F03000086000202949E0
:102880000860054614E0E009244908604FEA446006
:102890004FEA10644FF001002149C1F88401FFF7AD
:1028A0000DFF00201F490860FFF708FF681CC5B234
:1028B000082DE8DB70BD70B5054600241C48006893
:1028C00020F0F0001A4908600846006840F08000D7
:1028D0000860002613E00020124908604FF01E0037
:1028E00000F068F801200E49C1F884016006040E6A
:1028F0000E48006808B1601CC4B2701CC6B2082E35
:10290000E9DB15B9FFF78DFF01E0FFF76AFF20460D
:1029100070BD0000000C0140001C0140A481234256
:10292000008021428481214200802342248123426D
:10293000041C014010B509F0D9FB10BD10B509F019
:102940001AFC10BD10B5044620460BF079F910BDF5
:1029500010B53E480078012805D109F074FB09F054
:10296000B8FC09F08BFB10BD10B56FF0040006F049
:10297000CDFC374800683749B0FBF1F036490870A4
:10298000334800683349B0FBF1F441F288304443E6
:102990000520324908804FF0E020006940F0020035
:1029A0004FF0E021086108464461006940F00100F1
:1029B000086110BD2DE9F047074600264FF0E020E2
:1029C000D0F814902448007807FB00F800BFFFF708
:1029D000B1FF4FF0E020856911E04FF0E0208469FD
:1029E000AC420CD0AC4202D2281B064403E0A9EB57
:1029F0000400284406442546464500D300E0ECE7A1
:102A000000BFFFF79BFFBDE8F08770B504460F4895
:102A10000078A0B11248007888B910480088844234
:102A200006DB0E48008894FBF0F52846FFF78AFF86
:102A30000A48008894FBF0F100FB114084B24FF487
:102A40007A7104FB01F0FFF7B5FF70BD3209002079
:102A5000E408002000127A00900200209202002078
:102A6000250900202DE9FF4104460D4660784949BB
:102A700001EB8027A1780120884086B2627801218D
:102A800091404FF6FF7202EA8100012108F002F83E
:102A90000121414807F017FEADF80C6020780028AE
:102AA00053D1E078082808D00C280DD148208DF8A3
:102AB0000F000C208DF8090007E028208DF80F008A
:102AC00008208DF8090000E000BF00BF03A93846C8
:102AD00007F02AFD0DB907F02DF9A17801208840F3
:102AE0002E490860A178607807F032FEA1780120B5
:102AF00088400190E078082804D00C2806D18DF891
:102B0000090004E008208DF8090000E000BF00BFC4
:102B100000208DF8080001208DF80A0001A807F0B8
:102B200017F94FF4A06006F0A1FB20798DF80000A2
:102B300060798DF80100A0798DF8020001208DF8F0
:102B40000300684606F097FB11E02078012807D1C2
:102B500018208DF80F0003A9384607F0E5FC06E0C1
:102B600028208DF80F0003A9384607F0DDFCBDE8EA
:102B7000FF8110B5002400BF08E0C4EBC401084A7F
:102B800088182146FFF76EFF601CC4B2082CF4DBE6
:102B900010BD000000080140000230001404014094
:102BA00094020020FE4908807047FD49891C088076
:102BB0007047FB48801C00887047F94A1080921CBF
:102BC0001180704710B504462046FFF7EBFF052043
:102BD000FFF7F0FEFFF7EDFF10BDF2480089F04966
:102BE00008807047EE49891C0880704730B501465F
:102BF00001F01F04C1F34513CA0AE50205EB4315B2
:102C00001544A8B230BD00BF0100A0F10102D0B24E
:102C1000FAD1704710B503460C46E2488088A0F50B
:102C20001341413905D0DF488088A0F5A64110390D
:102C300014D1DC494889FFF7B5FF1812FFF7B5FF3B
:102C4000D8B2FFF7B2FFD7498889FFF7ABFF201250
:102C5000FFF7ABFFE0B2FFF7A8FF5DE0D148808847
:102C6000A0F5D04104391DD1CE488079012804D186
:102C7000CC480088401EC01A83B2CA494889FFF771
:102C800091FF1812FFF791FFD8B2FFF78EFFC549E9
:102C90008889FFF787FF2012FFF787FFE0B2FFF771
:102CA00084FF39E0BF488088A0F5AA41103920D1BF
:102CB000BC494889FFF776FF1812FFF776FFB9493C
:102CC0004989491C88B2FFF76DFFD8B2FFF76DFF45
:102CD000B4498889FFF766FF2012FFF766FFB14904
:102CE0008989491C88B2FFF75DFFE0B2FFF75DFFFD
:102CF00012E0AC488079012804D1AA480088401E1F
:102D0000C01A83B2A74948891946FFF756FFA5495B
:102D100088892146FFF751FF10BD2DE9F041054696
:102D20000E4600240027A0469E480088A84203DDE6
:102D30009C484088B04202DC0020BDE8F08131466A
:102D40002846FFF767FF97488088A0F5134141396F
:102D50000BD094488088A0F5D041043905D0914823
:102D60008088A0F5A641103903D12E20FFF71AFF65
:102D70000DE08C488088A0F5AA41103904D14FF4A9
:102D80003850FFF70FFF02E02220FFF70BFF8548C6
:102D90008088A0F51341203902D10220FFF733FFCC
:102DA0007F48801C008800B100240220FFF72BFF21
:102DB0007B48801C04887B488088A0F513414139FA
:102DC0000BD078488088A0F5A641103905D0754809
:102DD0008088A0F5AA4110390CD10220FFF713FF1B
:102DE0006F48801CB0F80080E7B24FF6FF7000EA31
:102DF000072708E06B488088A0F5D041043902D14C
:102E00006748801C048867488088A0F513412539ED
:102E100017D064488088A0F58A41353911D06148BF
:102E20008088A0F58A4131390BD05E488088A0F5B2
:102E30000941893905D05B488088A0F535410539BD
:102E400001D1204679E757488088A0F513414139E0
:102E50000BD054488088A0F5A641103905D05148C0
:102E60008088A0F5AA41103907D1E012C002B9123A
:102E700040EA411040EAE8205FE72046FFF7B6FE4F
:102E80005BE700B547488088A0F5134141390BD076
:102E900044488088A0F5D041043905D04148808855
:102EA000A0F5A641103903D12920FFF77BFE0FE0E2
:102EB0003C488088A0F5AA41103904D14FF4245031
:102EC000FFF770FE04E040F273110720FFF775FE74
:102ED00000BD00B533488088A0F5134141390BD0BF
:102EE00030488088A0F5D041043905D02D4880882D
:102EF000A0F5A641103903D12820FFF753FE0EE0BC
:102F000028488088A0F5AA41103904D14FF42050F8
:102F1000FFF748FE03E000210720FFF74EFE00BD4B
:102F2000F0B50546002400271E48807901281ED1EF
:102F30001C488088A0F5D041043918D0082D15D23E
:102F4000DFE805F00406080A0C0E101206250DE055
:102F500007250BE0042509E0052507E0012505E02C
:102F6000002503E0032501E0022500BF00BF0D4856
:102F70008088A0F51341413911D00A488088A0F516
:102F8000D04104390BD007488088A0F5A6411039FC
:102F900005D004488088A0F5AA4110397ED103E00D
:102FA000FE07006C0A0A0020082D1CD2DFE805F09D
:102FB0000406090C0F12151800BF14E044F0800439
:102FC00011E044F040040EE044F0C0040BE044F093
:102FD000200408E044F0600405E044F0A00402E0AE
:102FE00044F0E00400BF00BFFC488088A0F5AA417F
:102FF000103902D14FF4585700E03627F74880883F
:10300000A0F5A641103907D0F4488088A0F5AA4160
:10301000103901D044F00804F0488088A0F5D04170
:10302000043901D144F0020421463846FFF7C5FDBA
:1030300014F0200F03D1E948807901280DD1E74829
:103040000088E6494988884214DAE44806884088BE
:10305000E2490880084646800CE0E0480088DF49E5
:103060004988884206DDDD4806884088DB490880BB
:1030700008464680D9488088A0F5AA41103954D125
:10308000D6494889FFF78EFD0020FFF78EFDD34912
:103090004989491C88B2FFF785FD00E074E00020F3
:1030A000FFF783FDCD494989891C88B2FFF77AFD76
:1030B000CA490988491EC1F30F20FFF776FDC749A9
:1030C0004989C91C88B2FFF76DFDC4490978491EBA
:1030D000C8B2FFF76AFDC1498889FFF763FD002088
:1030E000FFF763FDBD498989491C88B2FFF75AFD86
:1030F0000020FFF75AFDB9498989891C88B2FFF77A
:1031000051FDB6494988491EC1F30F20FFF74DFD17
:10311000B2498989C91C88B2FFF744FDAF49897853
:10312000491EC8B2FFF741FD60E0AC494889FFF78E
:1031300039FD0020FFF739FD0020FFF736FDA749D4
:103140000988491EC1F30F20FFF72FFDA349097815
:10315000491EC8B2FFF729FDA0498889FFF722FD63
:103160000020FFF722FD0020FFF71FFD9B49498843
:10317000491EC1F30F20FFF718FD98498978491EB1
:10318000C8B2FFF712FD31E0082D1CD2DFE805F0D0
:1031900004070A0D0F12151844F0300413E044F030
:1031A000100410E044F020040DE000BF0BE044F0F8
:1031B000380408E044F0280405E044F0180402E074
:1031C00044F0080400BF00BF84488088A0F509418E
:1031D000893904D1112746F24000044302E0032755
:1031E00044F4805421463846FFF7E7FCF0BD30B583
:1031F00004460D4629462046FFF70CFDFFF7EDFC7F
:10320000774800887749088030BD30B503460C46C2
:10321000154672488088A0F51341413905D06F48A2
:103220008088A0F5A641103914D16C494889FFF770
:10323000B9FC1812FFF7B9FCD8B2FFF7B6FC674922
:103240008889FFF7AFFC2012FFF7AFFCE0B2FFF771
:10325000ACFC5DE061488088A0F5AA41103920D11E
:103260005E494889FFF79EFC1812FFF79EFC5B49F8
:103270004989491C88B2FFF795FCD8B2FFF795FC45
:1032800056498889FFF78EFC2012FFF78EFC5349C0
:103290008989491C88B2FFF785FCE0B2FFF785FCFD
:1032A00036E04E488088A0F5D04104391DD14B4806
:1032B0008079012804D149480088401EC01A83B291
:1032C00046494889FFF76EFC1812FFF76EFCD8B22A
:1032D000FFF76BFC41498889FFF764FC2012FFF778
:1032E00064FCE0B2FFF761FC12E03C488079012801
:1032F00004D13A480088401EC01A83B23749488931
:103300001946FFF75AFC354988892146FFF755FCD5
:10331000324800893349891E0880881C058030BDE9
:1033200010B50446002C67D12C498871F020088024
:103330004FF4A070488008468088A0F513414139B9
:103340000BD026488088A0F5D041043905D0234809
:103350008088A0F5A64110391AD12C201F49088178
:103360002A2048812B20888108468088A0F5D041FA
:10337000043905D019488088A0F5A641103906D136
:103380004FF4A070154908804FF4F07048809CE01D
:1033900012488088A0F50941893907D122200F49B8
:1033A00008814E2048814F2088818EE00B4880881C
:1033B000A0F5AA41103917D14FF4305007490881C0
:1033C0004FF4285048814FF42C5088814FF4F0700E
:1033D00008804FF44870488077E00DE00A0A00202A
:1033E000CC0200200008006C2220FE490881202029
:1033F00048812120888168E00120FA4988714FF4D2
:10340000A0700880F020488008468088A0F513410D
:10341000413905D0F3488088A0F5A641103907D17D
:103420002C20F04908812A2048812B20888139E00E
:10343000EC488088A0F5D041043907D12C20E94917
:1034400008812B2048812A2088812BE0E54880884C
:10345000A0F50941893907D12220E24908814F208E
:1034600048814E2088811DE0DE488088A0F5AA4171
:10347000103910D14FF43050DA4908814FF42850F8
:1034800048814FF42C5088814FF4487008804FF4E5
:10349000F070488006E02220D2490881212048812E
:1034A00020208881CF488088A0F5D041043905D0FC
:1034B000CC488088A0F5A641103906D14FF4F070B1
:1034C000C84908804FF4A07048800020FFF728FD0D
:1034D00010BD2DE9FF4F04460D4616461F46A019A4
:1034E000401E86B2E819401E87B2BE488088A0F50B
:1034F000134141390BD0BB488088A0F5A641103953
:1035000005D0B8488088A0F5D041043920D1B5490C
:103510004889FFF747FB2012FFF747FBE0B2FFF7B0
:1035200044FB3012FFF741FBF0B2FFF73EFBAD4921
:103530008889FFF737FB2812FFF737FBE8B2FFF760
:1035400034FB3812FFF731FBF8B2FFF72EFB90E0A7
:10355000A4488088A0F5AA41103944D1A1494889DE
:10356000FFF720FB2012FFF720FB9E494989491CE9
:1035700088B2FFF717FBE0B2FFF717FB99494989BB
:10358000891C88B2FFF70EFB3012FFF70EFB95493E
:103590004989C91C88B2FFF705FBF0B2FFF705FBAC
:1035A00090498889FFF7FEFA2812FFF7FEFA8D4945
:1035B0008989491C88B2FFF7F5FAE8B2FFF7F5FAF6
:1035C00088498989891C88B2FFF7ECFA3812FFF71D
:1035D000ECFA84498989C91C88B2FFF7E3FAF8B28A
:1035E000FFF7E3FA45E07F48807901280ED1A8462D
:1035F000B9467C480088801B401E80B20190794803
:103600000088001B401E80B2009003E0A046B14637
:103610000195009773488088A0F5094189390CD13C
:103620004FF0440AD34648EA09201FFA80F8C14601
:10363000452003904620029007E04FF0500A4FF0DB
:10364000510B522003905320029041465046FFF701
:10365000B4FA49465846FFF7B0FA01990398FFF7C4
:10366000ACFA00990298FFF7A8FA29462046FFF71E
:10367000D1FABDE8FF8F00B59FB00121080207F025
:10368000FCF9012140F2691007F004FA0120ADF8BD
:10369000780010208DF87B0003208DF87A001EA999
:1036A000514806F041FF4CF23370ADF87800182015
:1036B0008DF87B0003208DF87A001EA94B4806F098
:1036C00033FF4FF68070ADF8780018208DF87B003E
:1036D00003208DF87A001EA9454806F025FF41F227
:1036E0000100ADF8780018208DF87B0003208DF8DC
:1036F0007A001EA93F4806F017FF0120089000201D
:1037000009900F200A9000200B900C900D900E90C5
:1037100001900290032003900020049005900690F1
:10372000079006200F90002010901190102012900A
:103730000020139015901490169017904FF480501D
:103740001890002019904FF480401A9000201B9090
:1037500008A81C9001A81D900FA806F0C8FB012125
:10376000062006F025FD3220FFF74FF90121002049
:10377000FFF723FA3220FFF748F90020FFF722FA7B
:103780001849888008468088FF280ADB0846808818
:10379000A0F57F41FF3904D012488088B0F5134F5F
:1037A0007DD1D320FFF7FEF9FFF703FAFFF701FA07
:1037B000FFF7FFF90B498880084680884FF6FF71B4
:1037C00001EA002007498880FFF7F3F90549898855
:1037D00008430449888008468088A0F51341413990
:1037E00077D009E00A0A0020000C014000140140D3
:1037F0000018014000200140BF20FFF7D3F9FFF778
:10380000D8F9FFF7D6F9FFF7D4F9FFF7D2F9FE4957
:103810008880084680884FF6FF7101EA0020FA4947
:103820008880FFF7C6F9F84989880843F6498880F7
:1038300008468088A0F5D04104394AD0D420FFF74B
:10384000B1F9FFF7B6F9FFF7B4F9FFF7B2F9EE49AE
:103850008880084680884FF6FF7101EA0020EA4917
:103860008880FFF7A6F9E84989880843E6498880F7
:1038700008468088A0F5A64110392AD04FF45A4056
:10388000FFF790F9FFF795F94FF45B40FFF78AF9DE
:10389000FFF78FF9DC4988800846808800E018E04F
:1038A0004FF6FF7101EA0020D74988804FF45C4051
:1038B000FFF778F9FFF77DF9D34989880843D249A2
:1038C000888008468088B0F5004F02D145F210503C
:1038D0008880CD488088A0F5134141397ED1CF2022
:1038E000FFF760F90020FFF760F9C120FFF75DF9ED
:1038F0003020FFF75AF9ED20FFF754F96420FFF765
:1039000054F90320FFF751F91220FFF74EF98120F7
:10391000FFF74BF9E820FFF745F98520FFF745F958
:103920001020FFF742F97A20FFF73FF9CB20FFF78D
:1039300039F93920FFF739F92C20FFF736F9002043
:10394000FFF733F93420FFF730F90220FFF72DF9A4
:10395000F720FFF727F92020FFF727F9EA20FFF7E4
:1039600021F90020FFF721F90020FFF71EF9C02000
:10397000FFF718F91B20FFF718F9C120FFF712F91C
:103980000120FFF712F9C520FFF70CF93020FFF7EF
:103990000CF93020FFF709F9C720FFF703F9B7202A
:1039A000FFF703F93620FFF7FDF84820FFF7FDF891
:1039B0003A20FFF7F7F85520FFF7F7F8B120FFF7A7
:1039C000F1F80020FFF7F1F81A20FFF7EEF8B62023
:1039D000FFF7E8F80A20FFF7E8F800E097E0A220F8
:1039E000FFF7E3F8F220FFF7DDF80020FFF7DDF83E
:1039F0002620FFF7D7F80120FFF7D7F8E020FFF7E0
:103A0000D1F80F20FFF7D1F82A20FFF7CEF82820B1
:103A1000FFF7CBF80820FFF7C8F80E20FFF7C5F82E
:103A20000820FFF7C2F85420FFF7BFF8A920FFF7DE
:103A3000BCF84320FFF7B9F80A20FFF7B6F80F20CB
:103A4000FFF7B3F80020FFF7B0F80020FFF7ADF85C
:103A50000020FFF7AAF80020FFF7A7F8E120FFF702
:103A6000A1F80020FFF7A1F81520FFF79EF8172016
:103A7000FFF79BF80720FFF798F81120FFF795F85C
:103A80000620FFF792F82B20FFF78FF85620FFF75C
:103A90008CF83C20FFF789F80520FFF786F8102006
:103AA000FFF783F80F20FFF780F83F20FFF77DF83E
:103AB0003F20FFF77AF80F20FFF777F82B20FFF76A
:103AC00071F80020FFF771F80020FFF76EF8012071
:103AD000FFF76BF83F20FFF768F82A20FFF762F83E
:103AE0000020FFF762F80020FFF75FF80020FFF7E3
:103AF0005CF8EF20FFF759F81120FFF753F8782012
:103B0000FEF783FF2920FFF74DF803F01DB93E486B
:103B10008088A0F5D041043978D11120FFF742F810
:103B20001420FEF772FFD020FFF73CF80720FFF7C4
:103B30003CF84220FFF739F81D20FFF736F8D12076
:103B4000FFF730F80020FFF730F81A20FFF72DF8C4
:103B50000920FFF72AF8D220FFF724F80120FFF709
:103B600024F82220FFF721F8C020FFF71BF81020CF
:103B7000FFF71BF83B20FFF718F80020FFF715F8B8
:103B80000220FFF712F81120FFF70FF8C520FFF70A
:103B900009F80320FFF709F8C820FFF703F8002011
:103BA000FFF703F82520FFF700F82120FEF7FDFFBF
:103BB0000520FEF7FAFF0020FEF7F7FF0A20FEF7C8
:103BC000F4FF6520FEF7F1FF2520FEF7EEFF7720DA
:103BD000FEF7EBFF5020FEF7E8FF0F20FEF7E5FFB2
:103BE0000020FEF7E2FFF820FEF7DCFF0120FEF7E1
:103BF000DCFFFE20FEF7D6FF0020FEF7D6FF0220F6
:103C0000FEF7D3FF202002E00A0A002032E0FEF790
:103C1000C9FF3620FEF7C6FF0820FEF7C6FF3A2090
:103C2000FEF7C0FF5520FEF7C0FF2B20FEF7BAFFBE
:103C30000020FEF7BAFF0020FEF7B7FF0120FEF7D5
:103C4000B4FF3F20FEF7B1FF2A20FEF7ABFF0020B4
:103C5000FEF7ABFF0020FEF7A8FF0120FEF7A5FF4F
:103C6000DF20FEF7A2FF7820FEF7CFFE2920FEF727
:103C700099FF4AE7FE488088A0F5A641103940F038
:103C80007C87ED20FEF78EFF0120FEF78EFFFE20E1
:103C9000FEF78BFFEE20FEF785FFDE20FEF785FFA7
:103CA0002120FEF782FFF120FEF77CFF0120FEF7C6
:103CB0007CFFDF20FEF776FF1020FEF776FFC420A2
:103CC000FEF770FF8F20FEF770FFC620FEF76AFF39
:103CD0000020FEF76AFFE220FEF767FFE220FEF712
:103CE00064FFE220FEF761FFBF20FEF75BFFAA2022
:103CF000FEF75BFFB020FEF755FF0D20FEF755FFE6
:103D00000020FEF752FF0D20FEF74FFF0020FEF7C8
:103D10004CFF1120FEF749FF0020FEF746FF192057
:103D2000FEF743FF0020FEF740FF2120FEF73DFF96
:103D30000020FEF73AFF2D20FEF737FF0020FEF7A8
:103D400034FF3D20FEF731FF0020FEF72EFF5D20FF
:103D5000FEF72BFF0020FEF728FF5D20FEF725FF72
:103D60000020FEF722FFB120FEF71CFF8020FEF7A7
:103D70001CFF0020FEF719FF8B20FEF716FF002026
:103D8000FEF713FF9620FEF710FF0020FEF70DFF51
:103D9000B220FEF707FF0020FEF707FF0020FEF726
:103DA00004FF0220FEF701FF0020FEF7FEFE0320C5
:103DB000FEF7FBFE0020FEF7F8FEB320FEF7F2FE52
:103DC0000020FEF7F2FE0020FEF7EFFE0020FEF7D7
:103DD000ECFE0020FEF7E9FE0020FEF7E6FE0020E4
:103DE000FEF7E3FE0020FEF7E0FE0020FEF7DDFE1A
:103DF0000020FEF7DAFE0020FEF7D7FE0020FEF7D7
:103E0000D4FE0020FEF7D1FE0020FEF7CEFE0020FB
:103E1000FEF7CBFE0020FEF7C8FE0020FEF7C5FE31
:103E20000020FEF7C2FE0020FEF7BFFE0020FEF7D6
:103E3000BCFE0020FEF7B9FE0020FEF7B6FE002013
:103E4000FEF7B3FE0020FEF7B0FE0020FEF7ADFE49
:103E5000B420FEF7A7FE8B20FEF7A7FE0020FEF79A
:103E6000A4FE9620FEF7A1FE0020FEF79EFEA120F4
:103E7000FEF79BFE0020FEF798FEB520FEF792FEAF
:103E80000220FEF792FE0020FEF78FFE0320FEF7D1
:103E90008CFE0020FEF789FE0420FEF786FE00203F
:103EA000FEF783FEB620FEF77DFE0020FEF77DFEC6
:103EB0000020FEF77AFEB720FEF774FE0020FEF722
:103EC00074FE0020FEF771FE3F20FEF76EFE00201C
:103ED000FEF76BFE5E20FEF768FE0020FEF765FE33
:103EE0006420FEF762FE0020FEF75FFE8C20FEF7E6
:103EF0005CFE0020FEF759FEAC20FEF756FE0020C7
:103F0000FEF753FEDC20FEF750FE0020FEF74DFECC
:103F10007020FEF74AFE0020FEF747FE9020FEF7D5
:103F200044FE0020FEF741FEEB20FEF73EFE00209F
:103F3000FEF73BFEDC20FEF738FE0020FEF735FEE4
:103F4000B820FEF72FFE0020FEF72FFE0020FEF720
:103F50002CFE0020FEF729FE0020FEF726FE0020A2
:103F6000FEF723FE0020FEF720FE0020FEF71DFED8
:103F70000020FEF71AFEBA20FEF714FE2420FEF7FA
:103F800014FE0020FEF711FE0020FEF70EFE0020BA
:103F9000FEF70BFEC120FEF705FE2020FEF705FE12
:103FA0000020FEF702FE5420FEF7FFFD0020FEF782
:103FB000FCFDFF20FEF7F9FD0020FEF7F6FDC22014
:103FC000FEF7F0FD0A20FEF7F0FD0020FEF7EDFD04
:103FD0000420FEF7EAFD0020FEF7E7FDC320FEF710
:103FE000E1FD3C20FEF7E1FD0020FEF7DEFD3A207A
:103FF000FEF7DBFD0020FEF7D8FD3920FEF7D5FDEA
:104000000020FEF7D2FD3720FEF7CFFD0020FEF79F
:10401000CCFD3C20FEF7C9FD0020FEF7C6FD362092
:10402000FEF7C3FD0020FEF7C0FD3220FEF7BDFD08
:104030000020FEF7BAFD2F20FEF7B7FD0020FEF7A7
:10404000B4FD2C20FEF7B1FD0020FEF7AEFD2920C7
:10405000FEF7ABFD0020FEF7A8FD2620FEF7A5FD2C
:104060000020FEF7A2FD2420FEF79FFD002001E0C6
:104070000A0A0020FEF799FD2420FEF796FD002095
:10408000FEF793FD2320FEF790FD0020FEF78DFD47
:104090003C20FEF78AFD0020FEF787FD3620FEF764
:1040A00084FD0020FEF781FD3220FEF77EFD00201A
:1040B000FEF77BFD2F20FEF778FD0020FEF775FD53
:1040C0002C20FEF772FD0020FEF76FFD2920FEF781
:1040D0006CFD0020FEF769FD2620FEF766FD00203E
:1040E000FEF763FD2420FEF760FD0020FEF75DFD76
:1040F0002420FEF75AFD0020FEF757FD2320FEF78F
:1041000054FD0020FEF751FDC420FEF74BFD622058
:10411000FEF74BFD0020FEF748FD0520FEF745FDAC
:104120000020FEF742FD8420FEF73FFD0020FEF751
:104130003CFDF020FEF739FD0020FEF736FD18208B
:10414000FEF733FD0020FEF730FDA420FEF72DFD25
:104150000020FEF72AFD1820FEF727FD0020FEF7BD
:1041600024FD5020FEF721FD0020FEF71EFD0C204F
:10417000FEF71BFD0020FEF718FD1720FEF715FDCA
:104180000020FEF712FD9520FEF70FFD0020FEF740
:104190000CFDF320FEF709FD0020FEF706FDE620EA
:1041A000FEF703FD0020FEF700FDC520FEF7FAFC38
:1041B0003220FEF7FAFC0020FEF7F7FC4420FEF761
:1041C000F4FC0020FEF7F1FC6520FEF7EEFC002079
:1041D000FEF7EBFC7620FEF7E8FC0020FEF7E5FC9E
:1041E0008820FEF7E2FC0020FEF7DFFCC620FEF789
:1041F000D9FC2020FEF7D9FC0020FEF7D6FC1720C2
:10420000FEF7D3FC0020FEF7D0FC0120FEF7CDFC2A
:104210000020FEF7CAFCC720FEF7C4FC0020FEF712
:10422000C4FC0020FEF7C1FC0020FEF7BEFC00200D
:10423000FEF7BBFCC820FEF7B5FC0020FEF7B5FC7E
:104240000020FEF7B2FC0020FEF7AFFC0020FEF7D6
:10425000ACFCC920FEF7A6FC0020FEF7A6FC00205F
:10426000FEF7A3FC0020FEF7A0FC0020FEF79DFC5B
:104270000020FEF79AFC0020FEF797FC0020FEF7D6
:1042800094FC0020FEF791FC0020FEF78EFC00203D
:10429000FEF78BFC0020FEF788FC0020FEF785FC73
:1042A0000020FEF782FC0020FEF77FFC0020FEF7D6
:1042B0007CFC0020FEF779FCE020FEF773FC162062
:1042C000FEF773FC0020FEF770FC1C20FEF76DFC6F
:1042D0000020FEF76AFC2120FEF767FC0020FEF7B5
:1042E00064FC3620FEF761FC0020FEF75EFC4620F1
:1042F000FEF75BFC0020FEF758FC5220FEF755FC51
:104300000020FEF752FC6420FEF74FFC0020FEF771
:104310004CFC7A20FEF749FC0020FEF746FC8B207F
:10432000FEF743FC0020FEF740FC9920FEF73DFC21
:104330000020FEF73AFCA820FEF737FC0020FEF72D
:1043400034FCB920FEF731FC0020FEF72EFCC4201F
:10435000FEF72BFC0020FEF728FCCA20FEF725FC08
:104360000020FEF722FCD220FEF71FFC0020FEF703
:104370001CFCD920FEF719FC0020FEF716FCE020FB
:10438000FEF713FC0020FEF710FCF320FEF70DFCF7
:104390000020FEF70AFCE120FEF704FC1620FEF7E1
:1043A00004FC0020FEF701FC1C20FEF7FEFB0020B1
:1043B000FEF7FBFB2220FEF7F8FB0020FEF7F5FBE3
:1043C0003620FEF7F2FB0020FEF7EFFB4520FEF75C
:1043D000ECFB0020FEF7E9FB5220FEF7E6FB002095
:1043E000FEF7E3FB6420FEF7E0FB0020FEF7DDFBB9
:1043F0007A20FEF7DAFB0020FEF7D7FB8B20FEF7D2
:10440000D4FB0020FEF7D1FB9920FEF7CEFB002065
:10441000FEF7CBFBA820FEF7C8FB0020FEF7C5FB8C
:10442000B920FEF7C2FB0020FEF7BFFBC420FEF759
:10443000BCFB0020FEF7B9FBCA20FEF7B6FB00204C
:10444000FEF7B3FBD220FEF7B0FB0020FEF7ADFB7A
:10445000D820FEF7AAFB0020FEF7A7FBE020FEF71E
:10446000A4FB0020FEF7A1FBF320FEF79EFB00203B
:10447000FEF79BFBE220FEF795FB0520FEF795FB80
:104480000020FEF792FB0B20FEF78FFB0020FEF7CB
:104490008CFB1B20FEF789FB0020FEF786FB3420F7
:1044A000FEF783FB0020FEF780FB4420FEF77DFB38
:1044B0000020FEF77AFB4F20FEF777FB0020FEF787
:1044C00074FB6120FEF771FB0020FEF76EFB792084
:1044D000FEF76BFB0020FEF768FB8820FEF765FB0C
:1044E0000020FEF762FB9720FEF75FFB0020FEF73F
:1044F0005CFBA620FEF759FB0020FEF756FBB72019
:10450000FEF753FB0020FEF750FBC220FEF74DFBE9
:104510000020FEF74AFBC720FEF747FB0020FEF70E
:1045200044FBD120FEF741FB0020FEF73EFBD620E6
:10453000FEF73BFB0020FEF738FBDD20FEF735FBE6
:104540000020FEF732FBF320FEF72FFB0020FEF7E2
:104550002CFBE320FEF726FB0520FEF726FB0020C0
:10456000FEF723FB0A20FEF720FB0020FEF71DFBD1
:104570001C20FEF71AFB0020FEF717FB3320FEF786
:1045800014FB0020FEF711FB4420FEF70EFB002079
:10459000FEF70BFB5020FEF708FB0020FEF705FBA3
:1045A0006220FEF702FB0020FEF7FFFA7820FEF7FC
:1045B000FCFA0020FEF7F9FA8820FEF7F6FA002050
:1045C000FEF7F3FA9720FEF7F0FA0020FEF7EDFA77
:1045D000A620FEF7EAFA0020FEF7E7FAB720FEF77A
:1045E000E4FA0020FEF7E1FAC220FEF7DEFA00202E
:1045F000FEF7DBFAC720FEF7D8FA0020FEF7D5FA5F
:10460000D120FEF7D2FA0020FEF7CFFAD520FEF730
:10461000CCFA0020FEF7C9FADD20FEF7C6FA00202A
:10462000FEF7C3FAF320FEF7C0FA0020FEF7BDFA4A
:10463000E420FEF7B7FA0120FEF7B7FA0020FEF7F4
:10464000B4FA0120FEF7B1FA0020FEF7AEFA02201C
:10465000FEF7ABFA0020FEF7A8FA2A20FEF7A5FA2B
:104660000020FEF7A2FA3C20FEF79FFA0020FEF79A
:104670009CFA4B20FEF799FA0020FEF796FA5D208F
:10468000FEF793FA0020FEF790FA7420FEF78DFAF9
:104690000020FEF78AFA8420FEF787FA0020FEF752
:1046A00084FA9320FEF781FA0020FEF77EFAA2201A
:1046B000FEF77BFA0020FEF778FAB320FEF775FAD2
:1046C0000020FEF772FABE20FEF76FFA0020FEF718
:1046D0006CFAC420FEF769FA0020FEF766FACD20D6
:1046E000FEF763FA0020FEF760FAD320FEF75DFACA
:1046F0000020FEF75AFADD20FEF757FA0020FEF7F9
:1047000054FAF320FEF751FA0020FEF74EFAE520A6
:10471000FEF748FA0020FEF748FA0020FEF745FAB7
:104720000020FEF742FA0020FEF73FFA0220FEF7D3
:104730003CFA0020FEF739FA2920FEF736FA00206D
:10474000FEF733FA3C20FEF730FA0020FEF72DFA90
:104750004B20FEF72AFA0020FEF727FA5D20FEF72D
:1047600024FA0020FEF721FA7420FEF71EFA00203A
:10477000FEF71BFA8420FEF718FA0020FEF715FA60
:104780009320FEF712FA0020FEF70FFAA220FEF7A0
:104790000CFA0020FEF709FAB320FEF706FA002013
:1047A000FEF703FABE20FEF700FA0020FEF7FDF93F
:1047B000C420FEF7FAF90020FEF7F7F9CD20FEF746
:1047C000F4F90020FEF7F1F9D320FEF7EEF900200E
:1047D000FEF7EBF9DC20FEF7E8F90020FEF7E5F93B
:1047E000F320FEF7E2F90020FEF7DFF9E620FEF7FE
:1047F000D9F91120FEF7D9F90020FEF7D6F93420B7
:10480000FEF7D3F90020FEF7D0F95620FEF7CDF9D8
:104810000020FEF7CAF97620FEF7C7F90020FEF760
:10482000C4F97720FEF7C1F90020FEF7BEF9662033
:10483000FEF7BBF90020FEF7B8F98820FEF7B5F9BE
:104840000020FEF7B2F99920FEF7AFF90020FEF73D
:10485000ACF9BB20FEF7A9F90020FEF7A6F99920D4
:10486000FEF7A3F90020FEF7A0F96620FEF79DF9F8
:104870000020FEF79AF95520FEF797F90020FEF781
:1048800094F95520FEF791F90020FEF78EF94520A6
:10489000FEF78BF90020FEF788F94320FEF785F933
:1048A0000020FEF782F94420FEF77FF90020FEF792
:1048B0007CF9E720FEF776F93220FEF776F9002042
:1048C000FEF773F95520FEF770F90020FEF76DF939
:1048D0007620FEF76AF90020FEF767F96620FEF7FA
:1048E00064F90020FEF761F96720FEF75EF9002009
:1048F000FEF75BF96720FEF758F90020FEF755F93F
:104900008720FEF752F90020FEF74FF99920FEF7B5
:104910004CF90020FEF749F9BB20FEF746F90020CC
:10492000FEF743F99920FEF740F90020FEF73DF924
:104930007720FEF73AF90020FEF737F94420FEF71A
:1049400034F90020FEF731F95620FEF72EF9002049
:10495000FEF72BF92320FEF728F90020FEF725F9B2
:104960003320FEF722F90020FEF71FF94520FEF75D
:104970001CF90020FEF719F9E820FEF713F90020D2
:10498000FEF713F90020FEF710F99920FEF70DF954
:104990000020FEF70AF98720FEF707F90020FEF74E
:1049A00004F98820FEF701F90020FEF7FEF87720D1
:1049B000FEF7FBF80020FEF7F8F86620FEF7F5F8A2
:1049C0000020FEF7F2F88820FEF7EFF80020FEF74F
:1049D000ECF8AA20FEF7E9F80020FEF7E6F8BB2085
:1049E000FEF7E3F80020FEF7E0F89920FEF7DDF887
:1049F0000020FEF7DAF86620FEF7D7F80020FEF771
:104A0000D4F85520FEF7D1F80020FEF7CEF8552057
:104A1000FEF7CBF80020FEF7C8F84420FEF7C5F8F3
:104A20000020FEF7C2F84420FEF7BFF80020FEF792
:104A3000BCF85520FEF7B9F80020FEF7B6F8E920DB
:104A4000FEF7B0F8AA20FEF7B0F80020FEF7ADF8A8
:104A50000020FEF7AAF80020FEF7A7F80020FEF7D6
:104A6000A1F8AA20FEF7A1F8CF20FEF79BF80020BE
:104A7000FEF79BF80020FEF798F80020FEF795F867
:104A80000020FEF792F80020FEF78FF80020FEF7D6
:104A90008CF80020FEF789F80020FEF786F8002049
:104AA000FEF783F80020FEF780F80020FEF77DF87F
:104AB0000020FEF77AF80020FEF777F80020FEF7D6
:104AC00074F80020FEF771F80020FEF76EF8002061
:104AD000FEF76BF8F020FEF765F80020FEF765F8AA
:104AE0005020FEF762F80020FEF75FF80020FEF786
:104AF0005CF80020FEF759F8F320FEF753F8002089
:104B0000FEF753F8F920FEF74DF80620FEF74DF8B2
:104B10001020FEF74AF82920FEF747F80020FEF79C
:104B200044F83A20FEF73EF85520FEF73EF81120F3
:104B3000FEF738F86420FDF768FF2920FEF732F809
:104B40003520FEF72FF80020FEF72FF85120FEF752
:104B500029F8FF20FEF729F85320FEF723F82C2030
:104B6000FEF723F85520FEF71DF88220FEF71DF80A
:104B70002C20FEF717F802F0E7B8FE488088A0F571
:104B8000AA4110397ED155214FF47040FEF715F837
:104B9000AA214FF20100FEF710F852214FF2020055
:104BA000FEF70BF808214FF20300FEF706F801218B
:104BB0004FF20400FEF701F80D214FF43040FDF7ED
:104BC000FCFF0D214BF20100FDF7F7FF0D214BF229
:104BD0000200FDF7F2FF34214FF43640FDF7EDFF00
:104BE00034214BF20160FDF7E8FF34214BF2026003
:104BF000FDF7E3FF0D214FF43140FDF7DEFF0D21FE
:104C00004BF20110FDF7D9FF0D214BF20210FDF719
:104C1000D4FF34214FF43740FDF7CFFF34214BF25E
:104C20000170FDF7CAFF34214BF20270FDF7C5FF9A
:104C300000214FF43240FDF7C0FF00214BF201206C
:104C4000FDF7BBFF00214BF20220FDF7B6FF242148
:104C50004FF43840FDF7B1FF24214BF60100FDF77A
:104C6000ACFF24214BF60200FDF7A7FF01214FF412
:104C70003F40FDF7A2FF0F214FF43340FDF79DFFAA
:104C80000F2100E0FEE34BF20130FDF796FF0F210C
:104C90004BF20230FDF791FF34214FF43940FDF71C
:104CA0008CFF34214BF60110FDF787FF34214BF6C2
:104CB0000210FDF782FF08214FF43540FDF77DFF1C
:104CC00008214BF20150FDF778FF08214BF202500A
:104CD000FDF773FF03214FF44240FDF76EFF2421DF
:104CE0004FF43A40FDF769FF24214BF60120FDF710
:104CF00064FF24214BF60220FDF75FFF00214FF4F3
:104D00003C40FDF75AFF78214BF60140FDF755FF77
:104D100000214BF60240FDF750FF00214FF43D40CB
:104D2000FDF74BFF78214BF60150FDF746FF0021C0
:104D30004BF60250FDF741FF00214FF43E40FDF7D6
:104D40003CFF64214BF60160FDF737FF00214FF473
:104D50005140FDF732FF33214DF20110FDF72DFFD9
:104D600000214DF20210FDF728FF34214DF203100F
:104D7000FDF723FF00214DF20410FDF71EFF3A213D
:104D80004DF20510FDF719FF00214DF20610FDF759
:104D900014FF4A214DF20710FDF70FFF00214DF2DD
:104DA0000810FDF70AFF5C214DF20910FDF705FF21
:104DB00000214DF20A10FDF700FF81214DF20B108A
:104DC000FDF7FBFE00214DF20C10FDF7F6FEA621CB
:104DD0004DF20D10FDF7F1FE00214DF20E10FDF722
:104DE000ECFEE5214DF20F10FDF7E7FE01214DF23B
:104DF0001010FDF7E2FE13214DF21110FDF7DDFE5C
:104E000001214DF21210FDF7D8FE54214DF213107E
:104E1000FDF7D3FE01214DF21410FDF7CEFE8221E5
:104E20004DF21510FDF7C9FE01214DF21610FDF7E8
:104E3000C4FECA214DF21710FDF7BFFE02214DF24C
:104E40001810FDF7BAFE00214DF21910FDF7B5FE5E
:104E500002214DF21A10FDF7B0FE01214DF21B1098
:104E6000FDF7ABFE02214DF21C10FDF7A6FE34212A
:104E70004DF21D10FDF7A1FE02214DF21E10FDF7AF
:104E80009CFE67214DF21F10FDF797FE02214DF2A7
:104E90002010FDF792FE84214DF22110FDF78DFECA
:104EA00002214DF22210FDF788FEA4214DF22310BD
:104EB000FDF783FE02214DF22410FDF77EFEB7219F
:104EC0004DF22510FDF779FE02214DF22610FDF777
:104ED00074FECF214DF22710FDF76FFE02214DF237
:104EE0002810FDF76AFEDE214DF22910FDF765FE60
:104EF00002214DF22A10FDF760FEF2214DF22B1037
:104F0000FDF75BFE02214DF22C10FDF756FEFE214F
:104F10004DF22D10FDF751FE03214DF22E10FDF73D
:104F20004CFE10214DF22F10FDF747FE03214DF2EC
:104F30003010FDF742FE33214DF23110FDF73DFEFA
:104F400003214DF23210FDF738FE6D214DF2331082
:104F5000FDF733FE00214FF45240FDF72EFE3321C2
:104F60004DF20120FDF729FE00214DF20220FDF750
:104F700024FE01E00A0A002034214DF20320FDF74F
:104F80001CFE00214DF20420FDF717FE3A214DF2E0
:104F90000520FDF712FE00214DF20620FDF70DFE63
:104FA0004A214DF20720FDF708FE00214DF20820AE
:104FB000FDF703FE5C214DF20920FDF7FEFD002107
:104FC0004DF20A20FDF7F9FD81214DF20B20FDF78E
:104FD000F4FD00214DF20C20FDF7EFFDA6214DF26E
:104FE0000D20FDF7EAFD00214DF20E20FDF7E5FD55
:104FF000E5214DF20F20FDF7E0FD01214DF21020DB
:10500000FDF7DBFD13214DF21120FDF7D6FD012147
:105010004DF21220FDF7D1FD54214DF21320FDF782
:10502000CCFD01214DF21420FDF7C7FD82214DF288
:105030001520FDF7C2FD01214DF21620FDF7BDFD43
:10504000CA214DF21720FDF7B8FD02214DF21820BC
:10505000FDF7B3FD00214DF21920FDF7AEFD022151
:105060004DF21A20FDF7A9FD01214DF21B20FDF79D
:10507000A4FD02214DF21C20FDF79FFD34214DF2CD
:105080001D20FDF79AFD02214DF21E20FDF795FD32
:1050900067214DF21F20FDF790FD02214DF22020E7
:1050A000FDF78BFD84214DF22120FDF786FD0221C5
:1050B0004DF22220FDF781FDA4214DF22320FDF7C2
:1050C0007CFD02214DF22420FDF777FDB7214DF242
:1050D0002520FDF772FD02214DF22620FDF76DFD22
:1050E000CF214DF22720FDF768FD02214DF2282047
:1050F000FDF763FDDE214DF22920FDF75EFD022163
:105100004DF22A20FDF759FDF2214DF22B20FDF73B
:1051100054FD02214DF22C20FDF74FFDFE214DF2F2
:105120002D20FDF74AFD03214DF22E20FDF745FD10
:1051300010214DF22F20FDF740FD03214DF23020CC
:10514000FDF73BFD33214DF23120FDF736FD032104
:105150004DF23220FDF731FD6D214DF23320FDF788
:105160002CFD00214FF45340FDF727FD33214DF274
:105170000130FDF722FD00214DF20230FDF71DFD4B
:1051800034214DF20330FDF718FD00214DF20430BB
:10519000FDF713FD3A214DF20530FDF70EFD00211C
:1051A0004DF20630FDF709FD4A214DF20730FDF7BB
:1051B00004FD00214DF20830FDF7FFFC5C214DF2AB
:1051C0000930FDF7FAFC00214DF20A30FDF7F5FC3D
:1051D00081214DF20B30FDF7F0FC00214DF20C3037
:1051E000FDF7EBFCA6214DF20D30FDF7E6FC0021AA
:1051F0004DF20E30FDF7E1FCE5214DF20F30FDF7E9
:10520000DCFC01214DF21030FDF7D7FC13214DF2EB
:105210001130FDF7D2FC01214DF21230FDF7CDFC2B
:1052200054214DF21330FDF7C8FC01214DF214302A
:10523000FDF7C3FC82214DF21530FDF7BEFC0121C4
:105240004DF21630FDF7B9FCCA214DF21730FDF7CB
:10525000B4FC02214DF21830FDF7AFFC00214DF2F5
:105260001930FDF7AAFC02214DF21A30FDF7A5FC1A
:1052700001214DF21B30FDF7A0FC02214DF21C3044
:10528000FDF79BFC34214DF21D30FDF796FC022109
:105290004DF21E30FDF791FC67214DF21F30FDF7F6
:1052A0008CFC02214DF22030FDF787FC84214DF269
:1052B0002130FDF782FC02214DF22230FDF77DFC0A
:1052C000A4214DF22330FDF778FC02214DF2243069
:1052D000FDF773FCB7214DF22530FDF76EFC02217E
:1052E0004DF22630FDF769FCCF214DF22730FDF756
:1052F00064FC02214DF22830FDF75FFCDE214DF207
:105300002930FDF75AFC02214DF22A30FDF755FCF9
:10531000F2214DF22B30FDF750FC02214DF22C30E2
:10532000FDF74BFCFE214DF22D30FDF746FC03212D
:105330004DF22E30FDF741FC10214DF22F30FDF7DC
:105340003CFC03214DF23030FDF737FC33214DF2A8
:105350003130FDF732FC03214DF23230FDF72DFCE8
:105360006D214DF23330FDF728FC00214FF45440FD
:10537000FDF723FC33214DF20140FDF71EFC002117
:105380004DF20240FDF719FC34214DF20340FDF7C8
:1053900014FC00214DF20440FDF70FFC3A214DF2C0
:1053A0000540FDF70AFC00214DF20640FDF705FC23
:1053B0004A214DF20740FDF700FC00214DF2084064
:1053C000FDF7FBFB5C214DF20940FDF7F6FB0021E8
:1053D0004DF20A40FDF7F1FB81214DF20B40FDF744
:1053E000ECFB00214DF20C40FDF7E7FBA6214DF24E
:1053F0000D40FDF7E2FB00214DF20E40FDF7DDFB15
:10540000E5214DF20F40FDF7D8FB01214DF2104090
:10541000FDF7D3FB13214DF21140FDF7CEFB012127
:105420004DF21240FDF7C9FB54214DF21340FDF738
:10543000C4FB01214DF21440FDF7BFFB82214DF268
:105440001540FDF7BAFB01214DF21640FDF7B5FB03
:10545000CA214DF21740FDF7B0FB02214DF2184072
:10546000FDF7ABFB00214DF21940FDF7A6FB022131
:105470004DF21A40FDF7A1FB01214DF21B40FDF753
:105480009CFB00E004E302214DF21C40FDF795FB7C
:1054900034214DF21D40FDF790FB02214DF21E40DC
:1054A000FDF78BFB67214DF21F40FDF786FB0221C4
:1054B0004DF22040FDF781FB84214DF22140FDF7A4
:1054C0007CFB02214DF22240FDF777FBA4214DF237
:1054D0002340FDF772FB02214DF22440FDF76DFBE6
:1054E000B7214DF22540FDF768FB02214DF2264021
:1054F000FDF763FBCF214DF22740FDF75EFB022154
:105500004DF22840FDF759FBDE214DF22940FDF711
:1055100054FB02214DF22A40FDF74FFBF2214DF2E0
:105520002B40FDF74AFB02214DF22C40FDF745FBD5
:10553000FE214DF22D40FDF740FB03214DF22E40A0
:10554000FDF73BFB10214DF22F40FDF736FB032109
:105550004DF23040FDF731FB33214DF23140FDF784
:105560002CFB03214DF23240FDF727FB6D214DF25C
:105570003340FDF722FB00214FF45540FDF71DFBA2
:1055800033214DF20150FDF718FB00214DF202507E
:10559000FDF713FB34214DF20350FDF70EFB002104
:1055A0004DF20450FDF709FB3A214DF20550FDF78D
:1055B00004FB00214DF20650FDF7FFFA4A214DF29F
:1055C0000750FDF7FAFA00214DF20850FDF7F5FA01
:1055D0005C214DF20950FDF7F0FA00214DF20A501E
:1055E000FDF7EBFA81214DF20B50FDF7E6FA0021B1
:1055F0004DF20C50FDF7E1FAA6214DF20D50FDF7EA
:10560000DCFA00214DF20E50FDF7D7FAE5214DF2FC
:105610000F50FDF7D2FA01214DF21050FDF7CDFAEF
:1056200013214DF21150FDF7C8FA01214DF212502D
:10563000FDF7C3FA54214DF21350FDF7BEFA0121D4
:105640004DF21450FDF7B9FA82214DF21550FDF7D5
:10565000B4FA01214DF21650FDF7AFFACA214DF20E
:105660001750FDF7AAFA02214DF21850FDF7A5FADE
:1056700000214DF21950FDF7A0FA02214DF21A5007
:10568000FDF79BFA01214DF21B50FDF796FA02211E
:105690004DF21C50FDF791FA34214DF21D50FDF7EB
:1056A0008CFA02214DF21E50FDF787FA67214DF268
:1056B0001F50FDF782FA02214DF22050FDF77DFACE
:1056C00084214DF22150FDF778FA02214DF222504B
:1056D000FDF773FAA4214DF22350FDF76EFA022173
:1056E0004DF22450FDF769FAB7214DF22550FDF730
:1056F00064FA02214DF22650FDF75FFACF214DF2F8
:105700002750FDF75AFA02214DF22850FDF755FABD
:10571000DE214DF22950FDF750FA02214DF22A50B8
:10572000FDF74BFAF2214DF22B50FDF746FA02211C
:105730004DF22C50FDF741FAFE214DF22D50FDF7B0
:105740003CFA03214DF22E50FDF737FA10214DF2AD
:105750002F50FDF732FA03214DF23050FDF72DFAAC
:1057600033214DF23150FDF728FA03214DF232502A
:10577000FDF723FA6D214DF23350FDF71EFA00219B
:105780004FF45640FDF719FA33214DF20160FDF751
:1057900014FA00214DF20260FDF70FFA34214DF2A8
:1057A0000360FDF70AFA00214DF20460FDF705FAE7
:1057B0003A214DF20560FDF700FA00214DF2066036
:1057C000FDF7FBF94A214DF20760FDF7F6F90021DC
:1057D0004DF20860FDF7F1F95C214DF20960FDF72B
:1057E000ECF900214DF20A60FDF7E7F981214DF255
:1057F0000B60FDF7E2F900214DF20C60FDF7DDF9D9
:10580000A6214DF20D60FDF7D8F900214DF20E6092
:10581000FDF7D3F9E5214DF20F60FDF7CEF9012137
:105820004DF21060FDF7C9F913214DF21160FDF73B
:10583000C4F901214DF21260FDF7BFF954214DF278
:105840001360FDF7BAF901214DF21460FDF7B5F9C7
:1058500082214DF21560FDF7B0F901214DF216607D
:10586000FDF7ABF9CA214DF21760FDF7A6F9022149
:105870004DF21860FDF7A1F900214DF21960FDF716
:105880009CF902214DF21A60FDF797F901214DF2C2
:105890001B60FDF792F902214DF21C60FDF78DF9B6
:1058A00034214DF21D60FDF788F902214DF21E6092
:1058B000FDF783F967214DF21F60FDF77EF90221A4
:1058C0004DF22060FDF779F984214DF22160FDF75A
:1058D00074F902214DF22260FDF76FF9A4214DF217
:1058E0002360FDF76AF902214DF22460FDF765F9A6
:1058F000B7214DF22560FDF760F902214DF22660D7
:10590000FDF75BF9CF214DF22760FDF756F9022133
:105910004DF22860FDF751F9DE214DF22960FDF7C7
:105920004CF902214DF22A60FDF747F9F2214DF2C0
:105930002B60FDF742F902214DF22C60FDF73DF995
:10594000FE214DF22D60FDF738F903214DF22E6056
:10595000FDF733F910214DF22F60FDF72EF90321E9
:105960004DF23060FDF729F933214DF23160FDF73A
:1059700024F903214DF23260FDF71FF96D214DF23C
:105980003360FDF71AF955214FF47040FDF715F912
:10599000AA214FF20100FDF710F952214FF2020047
:1059A000FDF70BF908214FF20300FDF706F900217E
:1059B0004FF20400FDF701F9CC214FF43140FDF71F
:1059C000FCF800214BF20110FDF7F7F805214FF428
:1059D0003640FDF7F2F870214FF43740FDF7EDF84F
:1059E00070214BF20170FDF7E8F801214FF43840C7
:1059F000FDF7E3F803214BF60100FDF7DEF8032184
:105A00004BF60200FDF7D9F803214BF60300FDF732
:105A1000D4F802214FF43C40FDF7CFF800214BF6BB
:105A20000140FDF7CAF800214BF60240FDF7C5F82A
:105A3000D0214FF44940FDF7C0F802214CF6011087
:105A4000FDF7BBF850214CF60210FDF7B6F85021D7
:105A50004CF60310FDF7B1F850214CF60410FDF799
:105A6000ACF800214FF45450FDF7A7F855214FF43E
:105A70006850FDF7A2F84FF48850FDF793F87820AE
:105A8000FCF798FF4FF42450FDF78CF801F05CB957
:105A9000FE488088A0F5134125397DD147F6F001F5
:105AA000E520FDF78AF84FF480710120FDF785F8B5
:105AB0004FF4E0610220FDF780F841F2300103204D
:105AC000FDF77BF800210420FDF777F840F2022172
:105AD0000820FDF772F800210920FDF76EF800217B
